:100000000C942A000C943C000C943C000C943C0092
:100010000C943C000C943C000C943C000C943C0070
:100020000C943C000C943C000C943C000C943C0060
:100030000C943C000C943C000C943C000C943C0050
:100040000C943C000C943C000C943C000C943C0040
:100050000C943C0011241FBECFE5D8E0DEBFCDBF1D
:1000600020E0A0E6B0E001C01D92A036B207E1F7A3
:100070000E943E000C9405010C94000084B7806837
:1000800084BF84B7806884BF8FEF8ABB17BA14BA65
:1000900011BA91E09BBB88BB8FE082BB85BBE0E0DF
:1000A000F0E0D0E0A12C0F2EFFE0BF2EF02DB1E04C
:1000B000A0E000B396B3892F8F70E82EF12C96B391
:1000C00092959F70292F30E0D0B2D4FA442740F99E
:1000D00050E0D5FA662760F970E0102F17701530E0
:1000E00021F0C02FCD70C13069F4C701820F931F7A
:1000F0008F709078992324F40197806F9F6F0196F9
:10010000FC015CC0143021F0102F1B701A3071F408
:10011000C701821B930B40968F709078992324F42B
:100120000197806F9F6F0196FC0148C00F70C02E31
:10013000D12C2BE0C216D10421F032E0C316D10439
:1001400021F49823E92FF0E039C0202F30E0275028
:1001500031092230310520F4982BE92FF0E02EC030
:100160002FE0C216D10429F4982B9B25E92FF0E04B
:1001700025C036E0C316D10489F4970102C0220FCE
:10018000331F9A95E2F7C9018F709078992324F470
:100190000197806F9F6F0196FC0110C0C114D104BC
:1001A00039F4F70102C0F595E7959A95E2F706C094
:1001B00039E0C316D10411F4ED2FFA2D7F018FE041
:1001C000E822FF248B2F9A2FE114F10411F08D2FD8
:1001D0009A2D9C01242335238B2F9A2FEF2811F47D
:1001E0008D2F9A2D86239723822B932B8295929580
:1001F000907F9827807F98278E2B8BBB83EC99E08C
:0E0200000197F1F700C0000054CFF894FFCF33
:00000001FF
